{
    "_format": "hh-sol-artifact-1",
    "contractName": "horoscopeNFT",
    "sourceName": "contracts/horoscopeNFT.sol",
    "abi": [
        {
            "inputs": [],
            "stateMutability": "nonpayable",
            "type": "constructor"
        },
        {
            "anonymous": false,
            "inputs": [
                {
                    "indexed": true,
                    "internalType": "address",
                    "name": "owner",
                    "type": "address"
                },
                {
                    "indexed": true,
                    "internalType": "address",
                    "name": "approved",
                    "type": "address"
                },
                {
                    "indexed": true,
                    "internalType": "uint256",
                    "name": "tokenId",
                    "type": "uint256"
                }
            ],
            "name": "Approval",
            "type": "event"
        },
        {
            "anonymous": false,
            "inputs": [
                {
                    "indexed": true,
                    "internalType": "address",
                    "name": "owner",
                    "type": "address"
                },
                {
                    "indexed": true,
                    "internalType": "address",
                    "name": "operator",
                    "type": "address"
                },
                {
                    "indexed": false,
                    "internalType": "bool",
                    "name": "approved",
                    "type": "bool"
                }
            ],
            "name": "ApprovalForAll",
            "type": "event"
        },
        {
            "anonymous": false,
            "inputs": [
                {
                    "indexed": true,
                    "internalType": "address",
                    "name": "from",
                    "type": "address"
                },
                {
                    "indexed": true,
                    "internalType": "address",
                    "name": "to",
                    "type": "address"
                },
                {
                    "indexed": true,
                    "internalType": "uint256",
                    "name": "tokenId",
                    "type": "uint256"
                }
            ],
            "name": "Transfer",
            "type": "event"
        },
        {
            "inputs": [
                {
                    "internalType": "address",
                    "name": "to",
                    "type": "address"
                },
                {
                    "internalType": "uint256",
                    "name": "tokenId",
                    "type": "uint256"
                }
            ],
            "name": "approve",
            "outputs": [],
            "stateMutability": "nonpayable",
            "type": "function"
        },
        {
            "inputs": [
                {
                    "internalType": "address",
                    "name": "owner",
                    "type": "address"
                }
            ],
            "name": "balanceOf",
            "outputs": [
                {
                    "internalType": "uint256",
                    "name": "",
                    "type": "uint256"
                }
            ],
            "stateMutability": "view",
            "type": "function"
        },
        {
            "inputs": [
                {
                    "internalType": "uint256",
                    "name": "tokenId",
                    "type": "uint256"
                }
            ],
            "name": "getApproved",
            "outputs": [
                {
                    "internalType": "address",
                    "name": "",
                    "type": "address"
                }
            ],
            "stateMutability": "view",
            "type": "function"
        },
        {
            "inputs": [
                {
                    "internalType": "address",
                    "name": "owner",
                    "type": "address"
                },
                {
                    "internalType": "address",
                    "name": "operator",
                    "type": "address"
                }
            ],
            "name": "isApprovedForAll",
            "outputs": [
                {
                    "internalType": "bool",
                    "name": "",
                    "type": "bool"
                }
            ],
            "stateMutability": "view",
            "type": "function"
        },
        {
            "inputs": [
                {
                    "internalType": "address",
                    "name": "recipient",
                    "type": "address"
                },
                {
                    "internalType": "string",
                    "name": "zodiacSign",
                    "type": "string"
                }
            ],
            "name": "mintNFT",
            "outputs": [
                {
                    "internalType": "uint256",
                    "name": "",
                    "type": "uint256"
                }
            ],
            "stateMutability": "nonpayable",
            "type": "function"
        },
        {
            "inputs": [],
            "name": "name",
            "outputs": [
                {
                    "internalType": "string",
                    "name": "",
                    "type": "string"
                }
            ],
            "stateMutability": "view",
            "type": "function"
        },
        {
            "inputs": [
                {
                    "internalType": "uint256",
                    "name": "tokenId",
                    "type": "uint256"
                }
            ],
            "name": "ownerOf",
            "outputs": [
                {
                    "internalType": "address",
                    "name": "",
                    "type": "address"
                }
            ],
            "stateMutability": "view",
            "type": "function"
        },
        {
            "inputs": [
                {
                    "internalType": "address",
                    "name": "from",
                    "type": "address"
                },
                {
                    "internalType": "address",
                    "name": "to",
                    "type": "address"
                },
                {
                    "internalType": "uint256",
                    "name": "tokenId",
                    "type": "uint256"
                }
            ],
            "name": "safeTransferFrom",
            "outputs": [],
            "stateMutability": "nonpayable",
            "type": "function"
        },
        {
            "inputs": [
                {
                    "internalType": "address",
                    "name": "from",
                    "type": "address"
                },
                {
                    "internalType": "address",
                    "name": "to",
                    "type": "address"
                },
                {
                    "internalType": "uint256",
                    "name": "tokenId",
                    "type": "uint256"
                },
                {
                    "internalType": "bytes",
                    "name": "data",
                    "type": "bytes"
                }
            ],
            "name": "safeTransferFrom",
            "outputs": [],
            "stateMutability": "nonpayable",
            "type": "function"
        },
        {
            "inputs": [
                {
                    "internalType": "address",
                    "name": "operator",
                    "type": "address"
                },
                {
                    "internalType": "bool",
                    "name": "approved",
                    "type": "bool"
                }
            ],
            "name": "setApprovalForAll",
            "outputs": [],
            "stateMutability": "nonpayable",
            "type": "function"
        },
        {
            "inputs": [
                {
                    "internalType": "bytes4",
                    "name": "interfaceId",
                    "type": "bytes4"
                }
            ],
            "name": "supportsInterface",
            "outputs": [
                {
                    "internalType": "bool",
                    "name": "",
                    "type": "bool"
                }
            ],
            "stateMutability": "view",
            "type": "function"
        },
        {
            "inputs": [],
            "name": "symbol",
            "outputs": [
                {
                    "internalType": "string",
                    "name": "",
                    "type": "string"
                }
            ],
            "stateMutability": "view",
            "type": "function"
        },
        {
            "inputs": [
                {
                    "internalType": "uint256",
                    "name": "tokenId",
                    "type": "uint256"
                }
            ],
            "name": "tokenURI",
            "outputs": [
                {
                    "internalType": "string",
                    "name": "",
                    "type": "string"
                }
            ],
            "stateMutability": "view",
            "type": "function"
        },
        {
            "inputs": [
                {
                    "internalType": "address",
                    "name": "from",
                    "type": "address"
                },
                {
                    "internalType": "address",
                    "name": "to",
                    "type": "address"
                },
                {
                    "internalType": "uint256",
                    "name": "tokenId",
                    "type": "uint256"
                }
            ],
            "name": "transferFrom",
            "outputs": [],
            "stateMutability": "nonpayable",
            "type": "function"
        }
    ],
    "bytecode": "0x608060405260405180610160016040528061012f8152602001620030cf61012f91396008908051906020019062000038929190620000ed565b503480156200004657600080fd5b506040518060400160405280600981526020017f486f726f73636f706500000000000000000000000000000000000000000000008152506040518060400160405280600481526020017f48534350000000000000000000000000000000000000000000000000000000008152508160009080519060200190620000cb929190620000ed565b508060019080519060200190620000e4929190620000ed565b50505062000202565b828054620000fb906200019d565b90600052602060002090601f0160209004810192826200011f57600085556200016b565b82601f106200013a57805160ff19168380011785556200016b565b828001600101855582156200016b579182015b828111156200016a5782518255916020019190600101906200014d565b5b5090506200017a91906200017e565b5090565b5b80821115620001995760008160009055506001016200017f565b5090565b60006002820490506001821680620001b657607f821691505b60208210811415620001cd57620001cc620001d3565b5b50919050565b7f4e487b7100000000000000000000000000000000000000000000000000000000600052602260045260246000fd5b612ebd80620002126000396000f3fe608060405234801561001057600080fd5b50600436106100ea5760003560e01c806370a082311161008c578063b88d4fde11610066578063b88d4fde1461025b578063c87b56dd14610277578063e985e9c5146102a7578063eacabe14146102d7576100ea565b806370a08231146101f157806395d89b4114610221578063a22cb4651461023f576100ea565b8063095ea7b3116100c8578063095ea7b31461016d57806323b872dd1461018957806342842e0e146101a55780636352211e146101c1576100ea565b806301ffc9a7146100ef57806306fdde031461011f578063081812fc1461013d575b600080fd5b61010960048036038101906101049190611d9c565b610307565b6040516101169190612315565b60405180910390f35b6101276103e9565b6040516101349190612330565b60405180910390f35b61015760048036038101906101529190611dee565b61047b565b60405161016491906122ae565b60405180910390f35b61018760048036038101906101829190611d60565b6104c1565b005b6101a3600480360381019061019e9190611c06565b6105d9565b005b6101bf60048036038101906101ba9190611c06565b610639565b005b6101db60048036038101906101d69190611dee565b610659565b6040516101e891906122ae565b60405180910390f35b61020b60048036038101906102069190611ba1565b61070b565b60405161021891906124d2565b60405180910390f35b6102296107c3565b6040516102369190612330565b60405180910390f35b61025960048036038101906102549190611cd0565b610855565b005b61027560048036038101906102709190611c55565b61086b565b005b610291600480360381019061028c9190611dee565b6108cd565b60405161029e9190612330565b60405180910390f35b6102c160048036038101906102bc9190611bca565b6109e0565b6040516102ce9190612315565b60405180910390f35b6102f160048036038101906102ec9190611d0c565b610a74565b6040516102fe91906124d2565b60405180910390f35b60007f80ac58cd000000000000000000000000000000000000000000000000000000007bffffffffffffffffffffffffffffffffffffffffffffffffffffffff1916827bffffffffffffffffffffffffffffffffffffffffffffffffffffffff191614806103d257507f5b5e139f000000000000000000000000000000000000000000000000000000007bffffffffffffffffffffffffffffffffffffffffffffffffffffffff1916827bffffffffffffffffffffffffffffffffffffffffffffffffffffffff1916145b806103e257506103e182610b32565b5b9050919050565b6060600080546103f890612797565b80601f016020809104026020016040519081016040528092919081815260200182805461042490612797565b80156104715780601f1061044657610100808354040283529160200191610471565b820191906000526020600020905b81548152906001019060200180831161045457829003601f168201915b5050505050905090565b600061048682610b9c565b6004600083815260200190815260200160002060009054906101000a900473ffffffffffffffffffffffffffffffffffffffff169050919050565b60006104cc82610659565b90508073ffffffffffffffffffffffffffffffffffffffff168373ffffffffffffffffffffffffffffffffffffffff16141561053d576040517f08c379a000000000000000000000000000000000000000000000000000000000815260040161053490612492565b60405180910390fd5b8073ffffffffffffffffffffffffffffffffffffffff1661055c610be7565b73ffffffffffffffffffffffffffffffffffffffff16148061058b575061058a81610585610be7565b6109e0565b5b6105ca576040517f08c379a00000000000000000000000000000000000000000000000000000000081526004016105c190612432565b60405180910390fd5b6105d48383610bef565b505050565b6105ea6105e4610be7565b82610ca8565b610629576040517f08c379a0000000000000000000000000000000000000000000000000000000008152600401610620906124b2565b60405180910390fd5b610634838383610d3d565b505050565b6106548383836040518060200160405280600081525061086b565b505050565b6000806002600084815260200190815260200160002060009054906101000a900473ffffffffffffffffffffffffffffffffffffffff169050600073ffffffffffffffffffffffffffffffffffffffff168173ffffffffffffffffffffffffffffffffffffffff161415610702576040517f08c379a00000000000000000000000000000000000000000000000000000000081526004016106f990612472565b60405180910390fd5b80915050919050565b60008073ffffffffffffffffffffffffffffffffffffffff168273ffffffffffffffffffffffffffffffffffffffff16141561077c576040517f08c379a0000000000000000000000000000000000000000000000000000000008152600401610773906123f2565b60405180910390fd5b600360008373ffffffffffffffffffffffffffffffffffffffff1673ffffffffffffffffffffffffffffffffffffffff168152602001908152602001600020549050919050565b6060600180546107d290612797565b80601f01602080910402602001604051908101604052809291908181526020018280546107fe90612797565b801561084b5780601f106108205761010080835404028352916020019161084b565b820191906000526020600020905b81548152906001019060200180831161082e57829003601f168201915b5050505050905090565b610867610860610be7565b8383610fa4565b5050565b61087c610876610be7565b83610ca8565b6108bb576040517f08c379a00000000000000000000000000000000000000000000000000000000081526004016108b2906124b2565b60405180910390fd5b6108c784848484611111565b50505050565b60606108d882610b9c565b60006006600084815260200190815260200160002080546108f890612797565b80601f016020809104026020016040519081016040528092919081815260200182805461092490612797565b80156109715780601f1061094657610100808354040283529160200191610971565b820191906000526020600020905b81548152906001019060200180831161095457829003601f168201915b50505050509050600061098261116d565b90506000815114156109985781925050506109db565b6000825111156109cd5780826040516020016109b59291906121dc565b604051602081830303815290604052925050506109db565b6109d684611184565b925050505b919050565b6000600560008473ffffffffffffffffffffffffffffffffffffffff1673ffffffffffffffffffffffffffffffffffffffff16815260200190815260200160002060008373ffffffffffffffffffffffffffffffffffffffff1673ffffffffffffffffffffffffffffffffffffffff16815260200190815260200160002060009054906101000a900460ff16905092915050565b6000610a8060076111ec565b6000600883604051602001610a96929190612200565b60405160208183030381529060405290506000610add8485610ab785611202565b604051602001610ac99392919061222f565b604051602081830303815290604052611202565b9050600081604051602001610af2919061228c565b60405160208183030381529060405290506000610b0f600761138c565b9050610b1b878261139a565b610b258183611574565b8094505050505092915050565b60007f01ffc9a7000000000000000000000000000000000000000000000000000000007bffffffffffffffffffffffffffffffffffffffffffffffffffffffff1916827bffffffffffffffffffffffffffffffffffffffffffffffffffffffff1916149050919050565b610ba5816115e8565b610be4576040517f08c379a0000000000000000000000000000000000000000000000000000000008152600401610bdb90612472565b60405180910390fd5b50565b600033905090565b816004600083815260200190815260200160002060006101000a81548173ffffffffffffffffffffffffffffffffffffffff021916908373ffffffffffffffffffffffffffffffffffffffff160217905550808273ffffffffffffffffffffffffffffffffffffffff16610c6283610659565b73ffffffffffffffffffffffffffffffffffffffff167f8c5be1e5ebec7d5bd14f71427d1e84f3dd0314c0f7b2291e5b200ac8c7c3b92560405160405180910390a45050565b600080610cb483610659565b90508073ffffffffffffffffffffffffffffffffffffffff168473ffffffffffffffffffffffffffffffffffffffff161480610cf65750610cf581856109e0565b5b80610d3457508373ffffffffffffffffffffffffffffffffffffffff16610d1c8461047b565b73ffffffffffffffffffffffffffffffffffffffff16145b91505092915050565b8273ffffffffffffffffffffffffffffffffffffffff16610d5d82610659565b73ffffffffffffffffffffffffffffffffffffffff1614610db3576040517f08c379a0000000000000000000000000000000000000000000000000000000008152600401610daa90612372565b60405180910390fd5b600073ffffffffffffffffffffffffffffffffffffffff168273ffffffffffffffffffffffffffffffffffffffff161415610e23576040517f08c379a0000000000000000000000000000000000000000000000000000000008152600401610e1a906123b2565b60405180910390fd5b610e2e838383611654565b610e39600082610bef565b6001600360008573ffffffffffffffffffffffffffffffffffffffff1673ffffffffffffffffffffffffffffffffffffffff1681526020019081526020016000206000828254610e8991906126ad565b925050819055506001600360008473ffffffffffffffffffffffffffffffffffffffff1673ffffffffffffffffffffffffffffffffffffffff1681526020019081526020016000206000828254610ee091906125cc565b92505081905550816002600083815260200190815260200160002060006101000a81548173ffffffffffffffffffffffffffffffffffffffff021916908373ffffffffffffffffffffffffffffffffffffffff160217905550808273ffffffffffffffffffffffffffffffffffffffff168473ffffffffffffffffffffffffffffffffffffffff167fddf252ad1be2c89b69c2b068fc378daa952ba7f163c4a11628f55a4df523b3ef60405160405180910390a4610f9f838383611659565b505050565b8173ffffffffffffffffffffffffffffffffffffffff168373ffffffffffffffffffffffffffffffffffffffff161415611013576040517f08c379a000000000000000000000000000000000000000000000000000000000815260040161100a906123d2565b60405180910390fd5b80600560008573ffffffffffffffffffffffffffffffffffffffff1673ffffffffffffffffffffffffffffffffffffffff16815260200190815260200160002060008473ffffffffffffffffffffffffffffffffffffffff1673ffffffffffffffffffffffffffffffffffffffff16815260200190815260200160002060006101000a81548160ff0219169083151502179055508173ffffffffffffffffffffffffffffffffffffffff168373ffffffffffffffffffffffffffffffffffffffff167f17307eab39ab6107e8899845ad3d59bd9653f200f220920489ca2b5937696c31836040516111049190612315565b60405180910390a3505050565b61111c848484610d3d565b6111288484848461165e565b611167576040517f08c379a000000000000000000000000000000000000000000000000000000000815260040161115e90612352565b60405180910390fd5b50505050565b606060405180602001604052806000815250905090565b606061118f82610b9c565b600061119961116d565b905060008151116111b957604051806020016040528060008152506111e4565b806111c3846117f5565b6040516020016111d49291906121dc565b6040516020818303038152906040525b915050919050565b6001816000016000828254019250508190555050565b606060008251141561122557604051806020016040528060008152509050611387565b6000604051806060016040528060408152602001612e48604091399050600060036002855161125491906125cc565b61125e9190612622565b600461126a9190612653565b67ffffffffffffffff8111156112a9577f4e487b7100000000000000000000000000000000000000000000000000000000600052604160045260246000fd5b6040519080825280601f01601f1916602001820160405280156112db5781602001600182028036833780820191505090505b509050600182016020820185865187015b80821015611347576003820191508151603f8160121c168501518453600184019350603f81600c1c168501518453600184019350603f8160061c168501518453600184019350603f81168501518453600184019350506112ec565b505060038651066001811461136357600281146113765761137e565b603d6001830353603d600283035361137e565b603d60018303535b50505080925050505b919050565b600081600001549050919050565b600073ffffffffffffffffffffffffffffffffffffffff168273ffffffffffffffffffffffffffffffffffffffff16141561140a576040517f08c379a000000000000000000000000000000000000000000000000000000000815260040161140190612452565b60405180910390fd5b611413816115e8565b15611453576040517f08c379a000000000000000000000000000000000000000000000000000000000815260040161144a90612392565b60405180910390fd5b61145f60008383611654565b6001600360008473ffffffffffffffffffffffffffffffffffffffff1673ffffffffffffffffffffffffffffffffffffffff16815260200190815260200160002060008282546114af91906125cc565b92505081905550816002600083815260200190815260200160002060006101000a81548173ffffffffffffffffffffffffffffffffffffffff021916908373ffffffffffffffffffffffffffffffffffffffff160217905550808273ffffffffffffffffffffffffffffffffffffffff16600073ffffffffffffffffffffffffffffffffffffffff167fddf252ad1be2c89b69c2b068fc378daa952ba7f163c4a11628f55a4df523b3ef60405160405180910390a461157060008383611659565b5050565b61157d826115e8565b6115bc576040517f08c379a00000000000000000000000000000000000000000000000000000000081526004016115b390612412565b60405180910390fd5b806006600084815260200190815260200160002090805190602001906115e39291906119c5565b505050565b60008073ffffffffffffffffffffffffffffffffffffffff166002600084815260200190815260200160002060009054906101000a900473ffffffffffffffffffffffffffffffffffffffff1673ffffffffffffffffffffffffffffffffffffffff1614159050919050565b505050565b505050565b600061167f8473ffffffffffffffffffffffffffffffffffffffff166119a2565b156117e8578373ffffffffffffffffffffffffffffffffffffffff1663150b7a026116a8610be7565b8786866040518563ffffffff1660e01b81526004016116ca94939291906122c9565b602060405180830381600087803b1580156116e457600080fd5b505af192505050801561171557506040513d601f19601f820116820180604052508101906117129190611dc5565b60015b611798573d8060008114611745576040519150601f19603f3d011682016040523d82523d6000602084013e61174a565b606091505b50600081511415611790576040517f08c379a000000000000000000000000000000000000000000000000000000000815260040161178790612352565b60405180910390fd5b805181602001fd5b63150b7a0260e01b7bffffffffffffffffffffffffffffffffffffffffffffffffffffffff1916817bffffffffffffffffffffffffffffffffffffffffffffffffffffffff1916149150506117ed565b600190505b949350505050565b6060600082141561183d576040518060400160405280600181526020017f3000000000000000000000000000000000000000000000000000000000000000815250905061199d565b600082905060005b6000821461186f578080611858906127fa565b915050600a826118689190612622565b9150611845565b60008167ffffffffffffffff8111156118b1577f4e487b7100000000000000000000000000000000000000000000000000000000600052604160045260246000fd5b6040519080825280601f01601f1916602001820160405280156118e35781602001600182028036833780820191505090505b5090505b60008514611996576001826118fc91906126ad565b9150600a8561190b9190612843565b603061191791906125cc565b60f81b818381518110611953577f4e487b7100000000000000000000000000000000000000000000000000000000600052603260045260246000fd5b60200101907effffffffffffffffffffffffffffffffffffffffffffffffffffffffffffff1916908160001a905350600a8561198f9190612622565b94506118e7565b8093505050505b919050565b6000808273ffffffffffffffffffffffffffffffffffffffff163b119050919050565b8280546119d190612797565b90600052602060002090601f0160209004810192826119f35760008555611a3a565b82601f10611a0c57805160ff1916838001178555611a3a565b82800160010185558215611a3a579182015b82811115611a39578251825591602001919060010190611a1e565b5b509050611a479190611a4b565b5090565b5b80821115611a64576000816000905550600101611a4c565b5090565b6000611a7b611a7684612512565b6124ed565b905082815260208101848484011115611a9357600080fd5b611a9e848285612755565b509392505050565b6000611ab9611ab484612543565b6124ed565b905082815260208101848484011115611ad157600080fd5b611adc848285612755565b509392505050565b600081359050611af381612deb565b92915050565b600081359050611b0881612e02565b92915050565b600081359050611b1d81612e19565b92915050565b600081519050611b3281612e19565b92915050565b600082601f830112611b4957600080fd5b8135611b59848260208601611a68565b91505092915050565b600082601f830112611b7357600080fd5b8135611b83848260208601611aa6565b91505092915050565b600081359050611b9b81612e30565b92915050565b600060208284031215611bb357600080fd5b6000611bc184828501611ae4565b91505092915050565b60008060408385031215611bdd57600080fd5b6000611beb85828601611ae4565b9250506020611bfc85828601611ae4565b9150509250929050565b600080600060608486031215611c1b57600080fd5b6000611c2986828701611ae4565b9350506020611c3a86828701611ae4565b9250506040611c4b86828701611b8c565b9150509250925092565b60008060008060808587031215611c6b57600080fd5b6000611c7987828801611ae4565b9450506020611c8a87828801611ae4565b9350506040611c9b87828801611b8c565b925050606085013567ffffffffffffffff811115611cb857600080fd5b611cc487828801611b38565b91505092959194509250565b60008060408385031215611ce357600080fd5b6000611cf185828601611ae4565b9250506020611d0285828601611af9565b9150509250929050565b60008060408385031215611d1f57600080fd5b6000611d2d85828601611ae4565b925050602083013567ffffffffffffffff811115611d4a57600080fd5b611d5685828601611b62565b9150509250929050565b60008060408385031215611d7357600080fd5b6000611d8185828601611ae4565b9250506020611d9285828601611b8c565b9150509250929050565b600060208284031215611dae57600080fd5b6000611dbc84828501611b0e565b91505092915050565b600060208284031215611dd757600080fd5b6000611de584828501611b23565b91505092915050565b600060208284031215611e0057600080fd5b6000611e0e84828501611b8c565b91505092915050565b611e20816126e1565b82525050565b611e2f816126f3565b82525050565b6000611e4082612589565b611e4a818561259f565b9350611e5a818560208601612764565b611e6381612930565b840191505092915050565b6000611e7982612594565b611e8381856125b0565b9350611e93818560208601612764565b611e9c81612930565b840191505092915050565b6000611eb282612594565b611ebc81856125c1565b9350611ecc818560208601612764565b80840191505092915050565b60008154611ee581612797565b611eef81866125c1565b94506001821660008114611f0a5760018114611f1b57611f4e565b60ff19831686528186019350611f4e565b611f2485612574565b60005b83811015611f4657815481890152600182019150602081019050611f27565b838801955050505b50505092915050565b6000611f646032836125b0565b9150611f6f82612941565b604082019050919050565b6000611f876025836125b0565b9150611f9282612990565b604082019050919050565b6000611faa601c836125b0565b9150611fb5826129df565b602082019050919050565b6000611fcd6024836125b0565b9150611fd882612a08565b604082019050919050565b6000611ff06019836125b0565b9150611ffb82612a57565b602082019050919050565b6000612013600d836125c1565b915061201e82612a80565b600d82019050919050565b60006120366029836125c1565b915061204182612aa9565b602982019050919050565b60006120596029836125b0565b915061206482612af8565b604082019050919050565b600061207c602e836125b0565b915061208782612b47565b604082019050919050565b600061209f6002836125c1565b91506120aa82612b96565b600282019050919050565b60006120c2603e836125b0565b91506120cd82612bbf565b604082019050919050565b60006120e56020836125b0565b91506120f082612c0e565b602082019050919050565b6000612108600a836125c1565b915061211382612c37565b600a82019050919050565b600061212b6018836125b0565b915061213682612c60565b602082019050919050565b600061214e6066836125c1565b915061215982612c89565b606682019050919050565b60006121716021836125b0565b915061217c82612d24565b604082019050919050565b6000612194601d836125c1565b915061219f82612d73565b601d82019050919050565b60006121b7602e836125b0565b91506121c282612d9c565b604082019050919050565b6121d68161274b565b82525050565b60006121e88285611ea7565b91506121f48284611ea7565b91508190509392505050565b600061220c8285611ed8565b91506122188284611ea7565b915061222382612006565b91508190509392505050565b600061223a826120fb565b91506122468286611ea7565b915061225182612141565b915061225d8285611ea7565b915061226882612029565b91506122748284611ea7565b915061227f82612092565b9150819050949350505050565b600061229782612187565b91506122a38284611ea7565b915081905092915050565b60006020820190506122c36000830184611e17565b92915050565b60006080820190506122de6000830187611e17565b6122eb6020830186611e17565b6122f860408301856121cd565b818103606083015261230a8184611e35565b905095945050505050565b600060208201905061232a6000830184611e26565b92915050565b6000602082019050818103600083015261234a8184611e6e565b905092915050565b6000602082019050818103600083015261236b81611f57565b9050919050565b6000602082019050818103600083015261238b81611f7a565b9050919050565b600060208201905081810360008301526123ab81611f9d565b9050919050565b600060208201905081810360008301526123cb81611fc0565b9050919050565b600060208201905081810360008301526123eb81611fe3565b9050919050565b6000602082019050818103600083015261240b8161204c565b9050919050565b6000602082019050818103600083015261242b8161206f565b9050919050565b6000602082019050818103600083015261244b816120b5565b9050919050565b6000602082019050818103600083015261246b816120d8565b9050919050565b6000602082019050818103600083015261248b8161211e565b9050919050565b600060208201905081810360008301526124ab81612164565b9050919050565b600060208201905081810360008301526124cb816121aa565b9050919050565b60006020820190506124e760008301846121cd565b92915050565b60006124f7612508565b905061250382826127c9565b919050565b6000604051905090565b600067ffffffffffffffff82111561252d5761252c612901565b5b61253682612930565b9050602081019050919050565b600067ffffffffffffffff82111561255e5761255d612901565b5b61256782612930565b9050602081019050919050565b60008190508160005260206000209050919050565b600081519050919050565b600081519050919050565b600082825260208201905092915050565b600082825260208201905092915050565b600081905092915050565b60006125d78261274b565b91506125e28361274b565b9250827fffffffffffffffffffffffffffffffffffffffffffffffffffffffffffffffff0382111561261757612616612874565b5b828201905092915050565b600061262d8261274b565b91506126388361274b565b925082612648576126476128a3565b5b828204905092915050565b600061265e8261274b565b91506126698361274b565b9250817fffffffffffffffffffffffffffffffffffffffffffffffffffffffffffffffff04831182151516156126a2576126a1612874565b5b828202905092915050565b60006126b88261274b565b91506126c38361274b565b9250828210156126d6576126d5612874565b5b828203905092915050565b60006126ec8261272b565b9050919050565b60008115159050919050565b60007fffffffff0000000000000000000000000000000000000000000000000000000082169050919050565b600073ffffffffffffffffffffffffffffffffffffffff82169050919050565b6000819050919050565b82818337600083830152505050565b60005b83811015612782578082015181840152602081019050612767565b83811115612791576000848401525b50505050565b600060028204905060018216806127af57607f821691505b602082108114156127c3576127c26128d2565b5b50919050565b6127d282612930565b810181811067ffffffffffffffff821117156127f1576127f0612901565b5b80604052505050565b60006128058261274b565b91507fffffffffffffffffffffffffffffffffffffffffffffffffffffffffffffffff82141561283857612837612874565b5b600182019050919050565b600061284e8261274b565b91506128598361274b565b925082612869576128686128a3565b5b828206905092915050565b7f4e487b7100000000000000000000000000000000000000000000000000000000600052601160045260246000fd5b7f4e487b7100000000000000000000000000000000000000000000000000000000600052601260045260246000fd5b7f4e487b7100000000000000000000000000000000000000000000000000000000600052602260045260246000fd5b7f4e487b7100000000000000000000000000000000000000000000000000000000600052604160045260246000fd5b6000601f19601f8301169050919050565b7f4552433732313a207472616e7366657220746f206e6f6e20455243373231526560008201527f63656976657220696d706c656d656e7465720000000000000000000000000000602082015250565b7f4552433732313a207472616e736665722066726f6d20696e636f72726563742060008201527f6f776e6572000000000000000000000000000000000000000000000000000000602082015250565b7f4552433732313a20746f6b656e20616c7265616479206d696e74656400000000600082015250565b7f4552433732313a207472616e7366657220746f20746865207a65726f2061646460008201527f7265737300000000000000000000000000000000000000000000000000000000602082015250565b7f4552433732313a20617070726f766520746f2063616c6c657200000000000000600082015250565b7f3c2f746578743e3c2f7376673e00000000000000000000000000000000000000600082015250565b7f227d5d2c2022696d616765223a2022646174613a696d6167652f7376672b786d60008201527f6c3b6261736536342c0000000000000000000000000000000000000000000000602082015250565b7f4552433732313a2061646472657373207a65726f206973206e6f74206120766160008201527f6c6964206f776e65720000000000000000000000000000000000000000000000602082015250565b7f45524337323155524953746f726167653a2055524920736574206f66206e6f6e60008201527f6578697374656e7420746f6b656e000000000000000000000000000000000000602082015250565b7f227d000000000000000000000000000000000000000000000000000000000000600082015250565b7f4552433732313a20617070726f76652063616c6c6572206973206e6f7420746f60008201527f6b656e206f776e6572206e6f7220617070726f76656420666f7220616c6c0000602082015250565b7f4552433732313a206d696e7420746f20746865207a65726f2061646472657373600082015250565b7f7b226e616d65223a202200000000000000000000000000000000000000000000600082015250565b7f4552433732313a20696e76616c696420746f6b656e2049440000000000000000600082015250565b7f222c20226465736372697074696f6e223a20224f6e2d636861696e205a6f646960008201527f6163205369676e204e465473222c202261747472696275746573223a205b7b2260208201527f74726169745f74797065223a20225a6f64696163205369676e222c202276616c60408201527f7565223a20220000000000000000000000000000000000000000000000000000606082015250565b7f4552433732313a20617070726f76616c20746f2063757272656e74206f776e6560008201527f7200000000000000000000000000000000000000000000000000000000000000602082015250565b7f646174613a6170706c69636174696f6e2f6a736f6e3b6261736536342c000000600082015250565b7f4552433732313a2063616c6c6572206973206e6f7420746f6b656e206f776e6560008201527f72206e6f7220617070726f766564000000000000000000000000000000000000602082015250565b612df4816126e1565b8114612dff57600080fd5b50565b612e0b816126f3565b8114612e1657600080fd5b50565b612e22816126ff565b8114612e2d57600080fd5b50565b612e398161274b565b8114612e4457600080fd5b5056fe4142434445464748494a4b4c4d4e4f505152535455565758595a6162636465666768696a6b6c6d6e6f707172737475767778797a303132333435363738392b2fa2646970667358221220c2dce675446cbc05f8617bd3c88d6a8dc46084e18a1f086eb63713b8bcaf1e7a64736f6c634300080100333c73766720786d6c6e733d27687474703a2f2f7777772e77332e6f72672f323030302f73766727207072657365727665417370656374526174696f3d27784d696e594d696e206d656574272076696577426f783d273020302033353020333530273e3c7374796c653e2e62617365207b2066696c6c3a2077686974653b20666f6e742d66616d696c793a2073657269663b20666f6e742d73697a653a20323470783b207d3c2f7374796c653e3c726563742077696474683d273130302527206865696768743d2731303025272066696c6c3d27626c61636b27202f3e3c7465787420783d273530252720793d273530252720636c6173733d27626173652720646f6d696e616e742d626173656c696e653d276d6964646c652720746578742d616e63686f723d276d6964646c65273e",
    "linkReferences": {},
    "deployedLinkReferences": {}
}